:1000000080311328080008007E1480318B1D0928D8
:100010000A2811280B1C0D280E2811288931EA21E5
:1000200080317E10090080311528FB01FC015F3012
:100030008400003085001030893162218031A03089
:1000400084000030850009308931622180317E10C2
:10005000200080312B288A311F22803189313F21B5
:1000600080318B3158238031A830F5000C30F600F8
:10007000893151218031B630F5000D30F6008931DB
:100080005C2180318B170B172000D301D401D501DF
:10009000D601D901DA01DD01DE01CE0189317921F4
:1000A000803122008E140A3089319A2180318931C1
:1000B000392180318731F9278031003A03196128CD
:1000C00062285A2820005408D0005308CF008931F4
:1000D0005621803176082000D4007508D3004F08DF
:1000E0005004031D7428752879285408D00053083B
:1000F000CF004F085307CC005008543DCD00CD36FB
:10010000CC0C4C08D7004D08D8006208CC00CD01BB
:10011000CC1BCD035808B8005708B7008B31A82373
:10012000803120004C083707DB004D08383DDC00EB
:10013000650803199C289D28E228083089319A21F6
:1001400080318931392180318731F9278031003A76
:100150000319AB28AC28A42820005608D200550863
:10016000D10089315621803176082000D6007508EB
:10017000D50051085204031DBE28BF28C3285608C5
:10018000D2005508D10051085507CC005208563D01
:10019000CD00CD36CC0C4C08D9004D08DA006108F2
:1001A000CC00CD01CC1BCD035A08B8005908B700CC
:1001B0008B31A823803120004C083707DD004D0823
:1001C000383DDE0022008E1021009D012000030832
:1001D0001839031DEC28ED28992A65080319F12820
:1001E000F228F7284E03031DF628F7283829003097
:1001F0005802033003195702031CFF2800297F29E6
:10020000B1014030A0006408E7004330E8000A3044
:10021000B3000030B4005C08B6005B08B50087315D
:10022000BE27803120003308E9000A30B3000030D7
:10023000B4005C08B6005B08B5008A31DF2280316B
:1002400020003308EA0069086A07EE008A318B2231
:10025000803120002308DF006730B3005F08B4005E
:100260008B311223803122000E102000CE01992AFA
:10027000650803193C293D297F2900305A020330C3
:1002800003195902031C452946297F29B101403031
:10029000A0006308E7004330E8000A30B3000030F4
:1002A000B4005E08B6005D08B5008731BE27803116
:1002B00020003308E9000A30B3000030B4005E08C3
:1002C000B6005D08B5008A31DF2280312000330896
:1002D000EA0069086A07EE008A318B22803120002B
:1002E0002308DF006730B3005F08B4008B311223AE
:1002F000803122000E1001302000CE00992A992A68
:100300005C08C0005B08BF00C10100305802033028
:100310000319570203188D298F29013090290030C5
:10032000C2008F313427803120006508031D9929D0
:100330009C292F00A4149E292F00A4102A102914F0
:10034000200065080319A529A629CB2A0130E6005B
:10035000CB2A5E08C0005D08BF00C10100305A0210
:100360000330031959020318B629B8290130B929F5
:100370000030C2008F31342780312F00A4102A149E
:1003800029142000E601CB2A3F30B3003730B400F7
:10039000B501B601B70139308631E02680312F0032
:1003A0002910A4102A10CB2A2F0014082000CC00FA
:1003B000CD014C08BF004D08C000C101C201C301FE
:1003C000C30A8D3114258031CB2A5F30B3007830D9
:1003D000B400B501B601B70138308631E02680316E
:1003E000CB2A2F00150807392000CC00CD014C087E
:1003F000BF004D08C000C101C201C301C30A8D3155
:1004000014258031CB2A7430B300B401B501B60194
:10041000B70178308631E02680312F00A414200007
:10042000650C2F00031C2A1003182A14CB2A5E30F7
:10043000B300B401B501B601B70130308631E02612
:1004400080312F00A4142A10CB2A6408CC00CD01DF
:100450004C08BF004D08C000C101C201C301C30A5E
:100460008D31142580312F00A4142A10CB2A5E3040
:10047000B300B401B501B601B70130308631E026D2
:1004800080312F00A4102A14CB2A6308CC00CD01A0
:100490004C08BF004D08C000C101C201C301C30A1E
:1004A0008D31142580312F00A4102A14CB2A7730E7
:1004B000B3003830B400B501B601B7013930863128
:1004C000E02680312F00A4142A10CB2A6208BF0036
:1004D000C001BF1BC003C101C201C20AC301C30ADC
:1004E0008D31142580312F00A4142A102914CB2A11
:1004F0007730B3003830B400B501B601B7013930F8
:100500008631E02680312F00A4102A14CB2A6108FE
:10051000BF00C001BF1BC003C101C201C20AC301A9
:10052000C30A8D31142580312F00A4102A142914F8
:10053000CB2A6608003A03198029013A0319A92930
:10054000033A0319C429013A0319D429073A0319B4
:10055000E529013A0319F129033A0319032A013A5B
:100560000319032A0F3A0319172A013A0319252AF6
:10057000033A0319372A013A0319452A073A03199E
:10058000572A013A0319662A033A0319782A013ACD
:100590000319872ACB2A6300200060080319D12A97
:1005A000D22AD52A0130E0024E2800308931A62116
:1005B00080314E2880311328B134FD34FE34FD34AF
:1005C0004B34FE347D34FE34A434FE34C334FE3464
:1005D000DE34FE34F534FE340934FF341C34FF3489
:1005E0002D34FF343D34FF344C34FF345934FF3460
:1005F0006634FF347234FF347E34FF348934FF3480
:100600009334FF349D34FF34A734FF34B034FF34C7
:10061000B934FF34C234FF34CA34FF34D334FF3426
:10062000DA34FF34E234FF34EA34FF34F134FF3497
:10063000F834FF34FF34FF34063400340C34003413
:100640001334003419340034203400342634003498
:100650002C34003432340034383400343D34003427
:1006600043340034493400344E34003454340034BC
:10067000593400345E340034633400346934003457
:100680006E34003473340034783400347D340034F4
:1006900081340034863400348B3400349034003498
:1006A00094340034993400349E340034A23400343D
:1006B000A7340034AB340034B0340034B4340034E4
:1006C000B9340034BD340034C1340034C63400348D
:1006D000CA340034CE340034D2340034D734003439
:1006E000DB340034DF340034E3340034E7340034E6
:1006F000EB340034EF340034F4340034F834003494
:10070000FC3400340034013404340134083401343E
:100710000C340134103401341434013418340134ED
:100720001B3401341F3401342334013427340134A1
:100730002B3401342F340134333401343734013451
:100740003B3401343F340134423401344634013403
:100750004A3401344E3401345234013456340134B5
:100760005A3401345E340134613401346534013467
:10077000693401346D340134713401347534013419
:10078000793401347C3401348034013484340134CC
:10079000883401348C34013490340134943401347D
:1007A000983401349C3401349F340134A33401342F
:1007B000A7340134AB340134AF340134B3340134E1
:1007C000B7340134BB340134BF340134C334013491
:1007D000C7340134CB340134CF340134D334013441
:1007E000D7340134DB340134E0340134E4340134EF
:1007F000E8340134EC340134F0340134F43401349D
:10080000F9340134FD340134013402340534023446
:100810000A3402340E3402341234023417340234EF
:100820001B34023420340234243402342834023499
:100830002D34023432340234363402343B34023440
:100840003F34023444340234493402344E340234E6
:1008500052340234573402345C340234613402348A
:10086000663402346B34023470340234753402342A
:100870007A3402347F340234843402348A340234C9
:100880008F340234943402349A3402349F34023464
:10089000A5340234AB340234B0340234B6340234FA
:1008A000BC340234C2340234C8340234CE3402348C
:1008B000D4340234DA340234E1340234E73402341A
:1008C000EE340234F4340234FB34023402340334A0
:1008D0000934033410340334173403341E3403341E
:1008E000253403342D340334353403343C34033499
:1008F000443403344C340334553403345D3403340A
:10090000663403346F34033478340334813403346D
:100910008A340334943403349E340334A8340334C7
:10092000B3340334BE340334C9340334D43403340D
:10093000E0340334EC340334F9340334063404343F
:100940001334043421340434303404343F34043454
:100950004E3404345F340434703404348234043448
:1009600095340434A9340434BE340434D434043407
:10097000EC34043405340534203405343D34053476
:100980005D3405347F340534A4340534CE34053465
:10099000FC340534303406346C340634B234063456
:1009A000063407346E340734F4340734B034083472
:1009B000DD3409347C340C341B340F34B134FD3451
:1009C000FE34FD344B34FE347D34FE34A434FE3426
:1009D000C334FE34DE34FE34F534FE340934FF34DF
:1009E0001C34FF342D34FF343D34FF344C34FF3499
:1009F0005934FF346634FF347234FF347E34FF34AC
:100A00008934FF349334FF349D34FF34A734FF34EA
:100A1000B034FF34B934FF34C234FF34CA34FF3445
:100A2000D334FF34DA34FF34E234FF34EA34FF34B1
:100A3000F134FF34F834FF34FF34FF34063400342B
:100A40000C340034133400341934003420340034AE
:100A5000263400342C34003432340034383400343A
:100A60003D34003443340034493400344E340034CF
:100A700054340034593400345E3400346334003468
:100A8000693400346E340034733400347834003404
:100A90007D34003481340034863400348B340034A7
:100AA0009034003494340034993400349E3400344B
:100AB000A2340034A7340034AB340034B0340034F2
:100AC000B4340034B9340034BD340034C13400349B
:100AD000C6340034CA340034CE340034D234003446
:100AE000D7340034DB340034DF340034E3340034F2
:100AF000E7340034EB340034EF340034F4340034A1
:100B0000F8340034FC34003400340134043401344B
:100B1000083401340C3401341034013414340134F9
:100B2000183401341B3401341F34013423340134AC
:100B3000273401342B3401342F340134333401345D
:100B4000373401343B3401343F340134423401340E
:100B5000463401344A3401344E34013452340134C1
:100B6000563401345A3401345E3401346134013472
:100B700065340134693401346D3401347134013425
:100B800075340134793401347C34013480340134D7
:100B900084340134883401348C3401349034013489
:100BA00094340134983401349C3401349F3401343A
:100BB000A3340134A7340134AB340134AF340134ED
:100BC000B3340134B7340134BB340134BF3401349D
:100BD000C3340134C7340134CB340134CF3401344D
:100BE000D3340134D7340134DB340134E0340134FC
:100BF000E4340134E8340134EC340134F0340134A9
:100C0000F4340134F9340134FD3401340134023454
:100C1000053402340A3402340E34023412340234FD
:100C2000173402341B3402342034023424340234A6
:100C3000283402342D34023432340234363402344F
:100C40003B3402343F3402344434023449340234F5
:100C50004E34023452340234573402345C34023499
:100C600061340234663402346B340234703402343A
:100C7000753402347A3402347F34023484340234DA
:100C80008A3402348F340234943402349A34023475
:100C90009F340234A5340234AB340234B03402340D
:100CA000B6340234BC340234C2340234C8340234A0
:100CB000CE340234D4340234DA340234E13402342F
:100CC000E7340234EE340234F4340234FB340234B8
:100CD0000234033409340334103403341734033436
:100CE0001E340334253403342D34033435340334B3
:100CF0003C340334443403344C3403345534033427
:100D00005D340334663403346F340334783403348D
:100D1000813403348A340334943403349E340334EA
:100D2000A8340334B3340334BE340334C934033435
:100D3000D4340334E0340334EC340334F93403346E
:100D40000634043413340434213404343034043489
:100D50003F3404344E3404345F3404347034043487
:100D60008234043495340434A9340434BE34043455
:100D7000D4340434EC3404340534053420340534DC
:100D80003D3405345D3405347F340534A4340534F2
:100D9000CE340534FC340534303406346C34063437
:100DA000B2340634063407346E340734F43407346E
:100DB000B0340834DD3409347C340C341B340F3443
:100DC000F50047302F00A005EB30A1054730A30503
:100DD000EB30A4054730A605EB30A7054730A90541
:100DE000EB30AA05200034080139B8000730B835C7
:100DF000890BF72E33080139B9000530B935890B55
:100E0000FE2E33080239BA000330BA35890B052F9C
:100E100075080139BB000330BB35890B0C2F3B082B
:100E20003A04390438042F00A3042000340802399E
:100E3000B8000330B835890B1A2F02307505B90098
:100E4000393538042F00A404200034082039B800B4
:100E50000230B835890B292F20303305B90033080B
:100E6000BA000230BA36890B322F10303A05BB0077
:100E70007508BC000230BC36890B3B2F3C08083992
:100E80003B04390438042F00A00420003408B800C3
:100E90000230B836890B492F10303805B900750873
:100EA000BA000430BA36890B522F3A080439390493
:100EB0002F00A104200034081039B8000330B835E1
:100EC000890B5F2F33081039B9000130B935890B10
:100ED000662F33080439BA000230BA35890B6D2FFA
:100EE0007508BB000130BB36890B732F3B080839EE
:100EF0003A04390438042F00A604200034080439C9
:100F0000B8000230B835890B822F750804393804CF
:100F10002F00A70420003708B8000730B835890B28
:100F20008E2F3608B9000530B935890B942F330858
:100F30000839BA000130BA35890B9B2F3508BB0040
:100F40000330BB35890BA12F3B083A043904380420
:100F50002F00A904200034080839B8000130B83542
:100F6000890BAF2F7508B9000130B936890BB52F41
:100F70003908043938042F00AA0408002000B701FA
:100F8000B801330834040319C62FC72FF42F0130DA
:100F9000B900D12F0130B335B40D890BCB2F0130FF
:100FA000B907B41FD42FD52FCA2F0130B735B80DCC
:100FB000890BD62F34083602031DE02F3308350283
:100FC000031CE32FE42FE92F3308B5023408B63BA6
:100FD00037140130B436B30C890BEA2F0130B90253
:100FE000031DF32FF42FD52F3808B4003708B300B2
:100FF0000800031021009D1C03140030093D080067
:10126C00FB01FC01080021009D14080023009511CE
:10127C00080089313C21893108001F30210097007A
:10128C0008007108FB007008FC0008007608FA00E2
:10129C007508F90008007608F8007508F7000800D2
:1012AC0021001C08F6001B08F50008007608210038
:1012BC00AA007508A9000800640080010131890B9F
:1012CC00632900346A302100990022009601210024
:1012DC0098010800F50075082000B20020000000FD
:1012EC00B20B76290800E03021009E009B019C0186
:1012FC0029309D002000111308008B1021001517B8
:10130C000030F5000030F60089314C21893108009D
:10131C00F0007008031993299429972922008D1540
:10132C00992922008D110800F6007608F500F50DBC
:10133C00F50D21001D087506833975069D00080002
:10134C00F50075080319AB29AC29AF2922008D15BE
:10135C00B12922008D11080023001513951376086E
:10136C00920075089100151400000000230013086A
:10137C0008000130F00023009518C529C629CB2997
:10138C001518C929CA29CB29F0017008080077085B
:10139C0078040319D229D329D82978088A00770828
:1013AC000A008931270016130800210029082A0495
:1013BC000319E129E229E7292A088A0029080A00E9
:1013CC0089312700961308002700161FEE29EF29F4
:1013DC00F2298931CD2189312700961FF629F72969
:1013EC00FA298931DB2189310800002AC830003202
:1013FC00890BFD290130F0020030F13B700A031D0E
:10140C000B2A710A031D0B2A0C2AFC290800F61B57
:10141C00102A112A122A1E2A75092000B3007609F7
:10142C00B400B30A0319B40A3308F5003408F60003
:10143C000800893168218A318A31AF228A31893199
:10144C0079218A318A3135228A3189313F218A3199
:10145C00893143218A31893183218A3108008B30CB
:10146C002F00910002309200E03093000330940082
:10147C0084309500B930980017309900A001A10173
:10148C00A301A401A601A701A901AA0108000B0D43
:10149C000B0D0139F3002300151395131515710865
:1014AC00920070089100720893008B137C089600D0
:1014BC007B089600951400000000730C031C8B1322
:1014CC0003188B17230015110800F501F6012000F5
:1014DC00331C712A722A762A3508F5073608F63D30
:1014EC000130B535B60D890B772A0130B436B30C03
:1014FC00890B7C2A33083404031D852A862A6D2A1D
:10150C007608B4007508B300080020006708A30033
:10151C006808A4006908A5006A08A6006B08A70063
:10152C006C08A8006D08A9006E08B0004030A0003F
:10153C00B1012000B330B10DB00DA90DA80DA70D50
:10154C00A60DA50DA40DA30D0318A306A00BA12A8F
:10155C00080022008C018D018E01083090000C30A7
:10156C0021008C00F6308D0018308E000830900071
:10157C000C3023008C0006308D00C83024008D0008
:10158C00083090002100951327009401C03095007D
:10159C0096010230F5000030F600893151218A3174
:1015AC000330F5000030F60089315C218A318B154F
:1015BC0008002000330834040319E52AE62A0D2B11
:1015CC000130F500F02A0130B335B40D890BEA2A4D
:1015DC000130F507B41FF32AF42AE92A340836023D
:1015EC00031DFA2A33083502031CFD2AFE2A022B9E
:1015FC003308B5023408B63B0130B436B30C890B52
:10160C00032B0130F502031D0C2B0D2BF42A36088D
:10161C00B4003508B30008002000A1010930A20075
:10162C006708A3006808A4006908A5006A08A6005A
:10163C006B08A7006C08A8006D08A9006E08B00024
:10164C003408B1005830A0002000B10DB00DA90D28
:10165C00A80DA70DA60DA50DA40DA30DA20DA10DF2
:10166C002000031C3A2B3B2B482B22000E143E303F
:10167C00893170218B3122000E1037308931702165
:10168C008B31542B22000E103E30893170218B315E
:10169C0022000E143730893170218B312000A00BC1
:1016AC002B2B08002000BE0135308600003087004F
:1016BC000930B30000301E00B30B612BBF013F0893
:1016CC00353E860087013F08B300B4013308F500AE
:1016DC003408F6008931B2218B31810020003F089B
:1016EC000319792B7A2B802B3F08353E8600870116
:1016FC000108BE070130BF0709303F02031C872BCE
:10170C00882B652B35083E06031D8D2B8E2BA72BA6
:10171C0014303606031D932B942BA72B37082F0060
:10172C0094002000380807392F0095042000390850
:10173C00E5003A08E4003B08E3003C08E2003D0801
:10174C00E100080020003808BA003708B900BA36A2
:10175C00B90CBA36B90C3908C40037080339C100C2
:10176C004408B900BA01B935BA0DDC303907840028
:10177C0002303A3D80388500003FC200013FC30073
:10178C004408B900BA01B935BA0DDE303907840006
:10179C0002303A3D80388500003FBD00013FBE005D
:1017AC0042083D02B30043083E3BB4004108B90077
:1017BC00BA013908B5003A08B6008A316B228B3170
:1017CC0020003308BB003408BC00BC36BB0CBC3654
:1017DC00BB0C42083B07BF0043083C3DC00040081F
:1017EC00B8003F08B7000800F6012000BE1FFF2B11
:1017FC00002C072CBD09BE09BD0A0319BE0A013015
:10180C00F600BC1F0A2C0B2C102CBB09BC09BB0A04
:10181C000319BC0A3B083C040319152C162C3D2C4F
:10182C000130F500202C0130BB35BC0D890B1A2C76
:10183C000130F507BC1F232C242C192C3C083E022C
:10184C00031D2A2C3B083D02031C2D2C2E2C322C64
:10185C003B08BD023C08BE3B0130BC36BB0C890BBF
:10186C00332C0130F502031D3C2C3D2C242C760826
:10187C000319412C422C472CBD09BE09BD0A031982
:10188C00BE0A3E08BC003D08BB0008002000B801A1
:10189C00B41F512C522C592CB309B409B30A031997
:1018AC00B40A0130B800B61F5C2C5D2C642CB50951
:1018BC00B609B50A0319B60A0130B806B901BA015E
:1018CC003308340403196B2C6C2C992C0130B700A1
:1018DC00762C0130B335B40D890B702C0130B70761
:1018EC00B41F792C7A2C6F2C0130B935BA0D890BB9
:1018FC007B2C34083602031D852C33083502031C5F
:10190C00882C892C8E2C3308B5023408B63B39143C
:10191C000130B436B30C890B8F2C0130B702031D88
:10192C00982C992C7A2C380803199D2C9E2CA32CBE
:10193C00B909BA09B90A0319BA0A3A08B40039083C
:10194C00B30008003230F0000030F1008931FB2187
:10195C008C3120000D1FB32CB42CB52C132D013061
:10196C0089318E218C3102302000E000E12C0230D4
:10197C00E600132D0430E600132D0630E600132D7F
:10198C000830E600132D65080319CD2CCE2CD12C74
:10199C000A30E600132D0C30E600132D65080319F0
:1019AC00D82CD92CDC2C0E30E600132DE6018E3110
:1019BC0070268C31132D6608003A0319BD2C013AA0
:1019CC000319BD2C033A0319C02C013A0319C02C7E
:1019DC00073A0319C32C013A0319C32C033A031910
:1019EC00C62C013A0319C62C0F3A0319C92C013A1B
:1019FC000319C92C033A0319D12C013A0319D12C20
:101A0C00073A0319D42C013A0319D42C033A0319BD
:101A1C00DC2C013A0319DC2C132D08002000C40126
:101A2C00CA01C501C601C701C801430803191F2D0E
:101A3C00202D9F2DC01B232D252D0130262D003050
:101A4C00C4004008F6003F08F5008A310D228D31A4
:101A5C0076082000C0007508BF000A30BB000030BB
:101A6C00BC006430B3000030B4004008B6003F083E
:101A7C00B5008C314C248D3120003408BE00330865
:101A8C00BD008B31FA238D3120003B08C9000A3090
:101A9C00BB000030BC000A30B3000030B40040087A
:101AAC00B6003F08B5008C314C248D312000340831
:101ABC00BE003308BD008B31FA238D3120003B086A
:101ACC00CA000A30BB000030BC004008BE003F0812
:101ADC00BD008B31FA238D3120003B08C50049082D
:101AEC00031D792D7A2D832D1030C9004A08031D52
:101AFC00802D812D832D1030CA004908003E8400B2
:101B0C0090300318013E85000008C6004A08003ECC
:101B1C00840090300318013E85000008C70045087A
:101B2C00003E840090300318013E85000008C80078
:101B3C00A72D11308400903085000008C800C70024
:101B4C00C6004708B3004808B4004408B500410873
:101B5C00B6004208B70046088631E0268D310800F1
:101B6C003230F0000030F1008931FB218D31200042
:101B7C008D1FC12DC22DC32D6F2E013089318E21A9
:101B8C008D3102302000E000432E0330E6006F2E32
:101B9C0001302F0094076F2E0530E6006F2E2F00BA
:101BAC0015080739F200F83095050130F207720874
:101BBC00073995046F2E0730E6006F2E0130E506CD
:101BCC006F2E0930E6006F2E0D1FED2DEE2DF12D31
:101BDC000130E4076F2E0130E4026F2E0B30E6006B
:101BEC006F2E0D1FFA2DFB2DFE2D0130E3076F2EEE
:101BFC000130E3026F2E0D30E6006F2E0D1F072E05
:101C0C00082E152E6208803A613E03180E2E0F2EF8
:101C1C00122E0130E2076F2EE130E2006F2E6208C7
:101C2C00803A9E3E031C1B2E1C2E1F2EFF30E207FB
:101C3C006F2E1F30E2006F2E0F30E6006F2E0D1F3F
:101C4C00282E292E362E6108803A613E03182F2E3D
:101C5C00302E332E0130E1076F2EE130E1006F2E74
:101C6C006108803A9E3E031C3C2E3D2E402EFF30D8
:101C7C00E1076F2E1F30E1006F2E6608023A031940
:101C8C00CB2D013A0319CE2D073A0319D22D013A67
:101C9C000319D52D033A0319E12D013A0319E42D4B
:101CAC000F3A0319E72D013A0319EA2D033A0319E8
:101CBC00F42D013A0319F72D073A0319012E013AB5
:101CCC000319042E033A0319222E013A0319252E67
:101CDC006F2E0800F4015530F000AA30F100893164
:101CEC0047218E310130F0000030F1001430F20049
:101CFC008A314D228E311430F4078931BF218E3157
:101D0C00003A031D8A2E8B2E832E0230F0000030F9
:101D1C00F1002F001408F2008A314D228E312F0071
:101D2C001408F4078931BF218E31003A031D9F2E10
:101D3C00A02E982E0330F0000030F1002F00150873
:101D4C000739F2008A314D228E312F0015080739E0
:101D5C00F4078931BF218E31003A031DB62EB72E00
:101D6C00AF2E0430F0000030F10020006508F200C6
:101D7C008A314D228E3120006508F4078931BF214C
:101D8C008E31003A031DCB2ECC2EC42E0530F00024
:101D9C000030F10020006408F2008A314D228E31AF
:101DAC0020006408F4078931BF218E31003A031DED
:101DBC00E02EE12ED92E0630F0000030F10020008C
:101DCC006308F2008A314D228E3120006308F4073B
:101DDC008931BF218E31003A031DF52EF62EEE2EE1
:101DEC000730F0000030F10020006208F2008A3168
:101DFC004D228E3120006208F4078931BF218E31CB
:101E0C00003A031D0A2F0B2F032F0830F00000306F
:101E1C00F10020006108F2008A314D228E31200041
:101E2C006108F4078931BF218E31003A031D1F2F41
:101E3C00202F182F0030F000F1007408F2008A31C6
:101E4C004D228E318931BF218E31003A031D2F2F47
:101E5C00302F282F893136218E3108002000C40103
:101E6C00C501C601C701C801C901CA01420803194D
:101E7C00402F412FE92F4008803AC30083304302A2
:101E8C00031D4A2FE8303F0203184D2F4E2F602FB1
:101E9C0020004008803AC3007C304302031D582FB9
:101EAC0019303F02031C5B2F5C2F602F0130200088
:101EBC00C400712F0A302000B3000030B400400879
:101ECC00B6003F08B5008C314C248F31200034080B
:101EDC00C0003308BF00C01B742F762F0130772F42
:101EEC000030C5004008F6003F08F5008A310D228D
:101EFC008F3176082000C0007508BF000A30BB0087
:101F0C000030BC006430B3000030B4004008B600B0
:101F1C003F08B5008C314C248F3120003408BE00B2
:101F2C003308BD008B31FA238F3120003B08CB00E6
:101F3C000A30BB000030BC000A30B3000030B400E3
:101F4C004008B6003F08B5008C314C248F3120007E
:101F5C003408BE003308BD008B31FA238F312000CA
:101F6C003B08C6000A30BB000030BC004008BE0075
:101F7C003F08BD008B31FA238F3120003B08C7008E
:101F8C004B08031DCA2FCB2FCD2F1030CB004B0885
:101F9C00003E840090300318013E85000008C80004
:101FAC004608003E840090300318013E850000086E
:101FBC00C9004708003E840090300318013E85009C
:101FCC000008CA00F12F1130840090308500000801
:101FDC00CA00C900C8004908B3004A08B400450843
:101FEC00B5004108B6004408B70048088631E02621
:101FFC008F3108003F3406345B344F3466346D3413
:10200C007C3407347F34673477347C3439345E3431
:10201C0079347134003440343F3406345B344F34FB
:10202C0066346D347C3407347F34673477347C34D5
:0C203C0039345E3479347134003440349F
:020000040001F9
:04000E00EC3DFF3E88
:00000001FF
